{
  "contractName": "Splitter",
  "abi": [
    {
      "constant": false,
      "inputs": [],
      "name": "killContract",
      "outputs": [
        {
          "name": "",
          "type": "bool"
        }
      ],
      "payable": false,
      "stateMutability": "nonpayable",
      "type": "function"
    },
    {
      "constant": false,
      "inputs": [],
      "name": "pauseContract",
      "outputs": [
        {
          "name": "",
          "type": "bool"
        }
      ],
      "payable": false,
      "stateMutability": "nonpayable",
      "type": "function"
    },
    {
      "constant": false,
      "inputs": [],
      "name": "renounceOwnership",
      "outputs": [],
      "payable": false,
      "stateMutability": "nonpayable",
      "type": "function"
    },
    {
      "constant": true,
      "inputs": [
        {
          "name": "",
          "type": "address"
        }
      ],
      "name": "owedBalances",
      "outputs": [
        {
          "name": "",
          "type": "uint256"
        }
      ],
      "payable": false,
      "stateMutability": "view",
      "type": "function"
    },
    {
      "constant": true,
      "inputs": [],
      "name": "getOwner",
      "outputs": [
        {
          "name": "",
          "type": "address"
        }
      ],
      "payable": false,
      "stateMutability": "view",
      "type": "function"
    },
    {
      "constant": true,
      "inputs": [],
      "name": "isOwner",
      "outputs": [
        {
          "name": "",
          "type": "bool"
        }
      ],
      "payable": false,
      "stateMutability": "view",
      "type": "function"
    },
    {
      "constant": true,
      "inputs": [],
      "name": "_owner",
      "outputs": [
        {
          "name": "",
          "type": "address"
        }
      ],
      "payable": false,
      "stateMutability": "view",
      "type": "function"
    },
    {
      "constant": false,
      "inputs": [],
      "name": "resumeContract",
      "outputs": [
        {
          "name": "",
          "type": "bool"
        }
      ],
      "payable": false,
      "stateMutability": "nonpayable",
      "type": "function"
    },
    {
      "constant": false,
      "inputs": [
        {
          "name": "newOwner",
          "type": "address"
        }
      ],
      "name": "transferOwnership",
      "outputs": [],
      "payable": false,
      "stateMutability": "nonpayable",
      "type": "function"
    },
    {
      "inputs": [
        {
          "name": "initState",
          "type": "uint256"
        }
      ],
      "payable": false,
      "stateMutability": "nonpayable",
      "type": "constructor"
    },
    {
      "anonymous": false,
      "inputs": [
        {
          "indexed": true,
          "name": "caller",
          "type": "address"
        },
        {
          "indexed": true,
          "name": "address1",
          "type": "address"
        },
        {
          "indexed": true,
          "name": "address2",
          "type": "address"
        },
        {
          "indexed": false,
          "name": "amount",
          "type": "uint256"
        }
      ],
      "name": "LogSplit",
      "type": "event"
    },
    {
      "anonymous": false,
      "inputs": [
        {
          "indexed": true,
          "name": "caller",
          "type": "address"
        },
        {
          "indexed": false,
          "name": "amount",
          "type": "uint256"
        }
      ],
      "name": "LogEtherRetrieved",
      "type": "event"
    },
    {
      "anonymous": false,
      "inputs": [
        {
          "indexed": true,
          "name": "caller",
          "type": "address"
        }
      ],
      "name": "LogPausedContract",
      "type": "event"
    },
    {
      "anonymous": false,
      "inputs": [
        {
          "indexed": true,
          "name": "caller",
          "type": "address"
        }
      ],
      "name": "LogResumeContract",
      "type": "event"
    },
    {
      "anonymous": false,
      "inputs": [
        {
          "indexed": true,
          "name": "caller",
          "type": "address"
        }
      ],
      "name": "LogKilledContract",
      "type": "event"
    },
    {
      "anonymous": false,
      "inputs": [
        {
          "indexed": true,
          "name": "previousOwner",
          "type": "address"
        },
        {
          "indexed": true,
          "name": "newOwner",
          "type": "address"
        }
      ],
      "name": "OwnershipTransferred",
      "type": "event"
    },
    {
      "constant": false,
      "inputs": [
        {
          "name": "addr1",
          "type": "address"
        },
        {
          "name": "addr2",
          "type": "address"
        }
      ],
      "name": "splitBalance",
      "outputs": [],
      "payable": true,
      "stateMutability": "payable",
      "type": "function"
    },
    {
      "constant": false,
      "inputs": [],
      "name": "retrieve",
      "outputs": [],
      "payable": false,
      "stateMutability": "nonpayable",
      "type": "function"
    }
  ],
  "bytecode": "0x608060405234801561001057600080fd5b506040516020806110718339810180604052602081101561003057600080fd5b810190808051906020019092919050505080336000806101000a81548173ffffffffffffffffffffffffffffffffffffffff021916908373ffffffffffffffffffffffffffffffffffffffff1602179055506000809054906101000a900473ffffffffffffffffffffffffffffffffffffffff1673ffffffffffffffffffffffffffffffffffffffff16600073ffffffffffffffffffffffffffffffffffffffff167f8be0079c531659141344cd1fd0a4f28419497f9722a3daafe3b4186f6b6457e060405160405180910390a360028081111561010a57fe5b81600281111561011657fe5b600281111561012157fe5b1415151561012e57600080fd5b80600281111561013a57fe5b600060146101000a81548160ff0219169083600281111561015757fe5b02179055505050610f048061016d6000396000f3fe6080604052600436106100af576000357c0100000000000000000000000000000000000000000000000000000000900463ffffffff1680631c02708d146100b45780632e64cec1146100e3578063439766ce146100fa578063715018a6146101295780638459862014610140578063893d20e8146101a55780638f32d59b146101fc578063b2bdfa7b1461022b578063c4bc5da514610282578063f2fde38b146102b1578063fed42cdc14610302575b600080fd5b3480156100c057600080fd5b506100c9610366565b604051808215151515815260200191505060405180910390f35b3480156100ef57600080fd5b506100f8610486565b005b34801561010657600080fd5b5061010f610644565b604051808215151515815260200191505060405180910390f35b34801561013557600080fd5b5061013e610763565b005b34801561014c57600080fd5b5061018f6004803603602081101561016357600080fd5b81019080803573ffffffffffffffffffffffffffffffffffffffff169060200190929190505050610835565b6040518082815260200191505060405180910390f35b3480156101b157600080fd5b506101ba61084d565b604051808273ffffffffffffffffffffffffffffffffffffffff1673ffffffffffffffffffffffffffffffffffffffff16815260200191505060405180910390f35b34801561020857600080fd5b50610211610876565b604051808215151515815260200191505060405180910390f35b34801561023757600080fd5b506102406108cd565b604051808273ffffffffffffffffffffffffffffffffffffffff1673ffffffffffffffffffffffffffffffffffffffff16815260200191505060405180910390f35b34801561028e57600080fd5b506102976108f2565b604051808215151515815260200191505060405180910390f35b3480156102bd57600080fd5b50610300600480360360208110156102d457600080fd5b81019080803573ffffffffffffffffffffffffffffffffffffffff169060200190929190505050610a11565b005b6103646004803603604081101561031857600080fd5b81019080803573ffffffffffffffffffffffffffffffffffffffff169060200190929190803573ffffffffffffffffffffffffffffffffffffffff169060200190929190505050610a30565b005b6000610370610876565b151561037b57600080fd5b6001600281111561038857fe5b600060149054906101000a900460ff1660028111156103a357fe5b141515610418576040517f08c379a000000000000000000000000000000000000000000000000000000000815260040180806020018281038252601a8152602001807f4572726f723a20636f6e7472616374206e6f742070617573656400000000000081525060200191505060405180910390fd5b6002600060146101000a81548160ff0219169083600281111561043757fe5b02179055503373ffffffffffffffffffffffffffffffffffffffff167f2e509d9c7e2b2882b34a980d42eb39a18aff611ca02afffa9daa7861d97efa5760405160405180910390a26001905090565b6000600281111561049357fe5b600060149054906101000a900460ff1660028111156104ae57fe5b141515610523576040517f08c379a00000000000000000000000000000000000000000000000000000000081526004018080602001828103825260208152602001807f4572726f723a20636f6e747261637420706175736564206f72206b696c6c656481525060200191505060405180910390fd5b6000600160003373ffffffffffffffffffffffffffffffffffffffff1673ffffffffffffffffffffffffffffffffffffffff1681526020019081526020016000205490506000600160003373ffffffffffffffffffffffffffffffffffffffff1673ffffffffffffffffffffffffffffffffffffffff168152602001908152602001600020819055503373ffffffffffffffffffffffffffffffffffffffff167f33132fc5f2bf65aef6b1aa062fbc21e896f68d9de23e298aafefe4a15c777081826040518082815260200191505060405180910390a23373ffffffffffffffffffffffffffffffffffffffff166108fc829081150290604051600060405180830381858888f19350505050158015610640573d6000803e3d6000fd5b5050565b600080600281111561065257fe5b600060149054906101000a900460ff16600281111561066d57fe5b1415156106e2576040517f08c379a00000000000000000000000000000000000000000000000000000000081526004018080602001828103825260208152602001807f4572726f723a20636f6e747261637420706175736564206f72206b696c6c656481525060200191505060405180910390fd5b6106ea610876565b15156106f557600080fd5b6001600060146101000a81548160ff0219169083600281111561071457fe5b02179055503373ffffffffffffffffffffffffffffffffffffffff167f0f16e24f375b1dbe1f5a889ed7cfe74cc12486509f3d710d14078f001874362260405160405180910390a26001905090565b61076b610876565b151561077657600080fd5b600073ffffffffffffffffffffffffffffffffffffffff166000809054906101000a900473ffffffffffffffffffffffffffffffffffffffff1673ffffffffffffffffffffffffffffffffffffffff167f8be0079c531659141344cd1fd0a4f28419497f9722a3daafe3b4186f6b6457e060405160405180910390a360008060006101000a81548173ffffffffffffffffffffffffffffffffffffffff021916908373ffffffffffffffffffffffffffffffffffffffff160217905550565b60016020528060005260406000206000915090505481565b60008060009054906101000a900473ffffffffffffffffffffffffffffffffffffffff16905090565b60008060009054906101000a900473ffffffffffffffffffffffffffffffffffffffff1673ffffffffffffffffffffffffffffffffffffffff163373ffffffffffffffffffffffffffffffffffffffff1614905090565b6000809054906101000a900473ffffffffffffffffffffffffffffffffffffffff1681565b60006108fc610876565b151561090757600080fd5b6001600281111561091457fe5b600060149054906101000a900460ff16600281111561092f57fe5b1415156109a4576040517f08c379a000000000000000000000000000000000000000000000000000000000815260040180806020018281038252601a8152602001807f4572726f723a20636f6e7472616374206e6f742070617573656400000000000081525060200191505060405180910390fd5b60008060146101000a81548160ff021916908360028111156109c257fe5b02179055503373ffffffffffffffffffffffffffffffffffffffff167f1f98e15848335d04a3b0c6ed4988542831246d3ae2250d2ad35485b34e6945b060405160405180910390a26001905090565b610a19610876565b1515610a2457600080fd5b610a2d81610dbd565b50565b60006002811115610a3d57fe5b600060149054906101000a900460ff166002811115610a5857fe5b141515610acd576040517f08c379a00000000000000000000000000000000000000000000000000000000081526004018080602001828103825260208152602001807f4572726f723a20636f6e747261637420706175736564206f72206b696c6c656481525060200191505060405180910390fd5b600034111515610adc57600080fd5b600073ffffffffffffffffffffffffffffffffffffffff168273ffffffffffffffffffffffffffffffffffffffff1614151515610b1857600080fd5b600073ffffffffffffffffffffffffffffffffffffffff168173ffffffffffffffffffffffffffffffffffffffff1614151515610b5457600080fd5b6000600234811515610b6257fe5b0490506001600234811515610b7357fe5b061415610c1057610bcc60018060003373ffffffffffffffffffffffffffffffffffffffff1673ffffffffffffffffffffffffffffffffffffffff16815260200190815260200160002054610eb790919063ffffffff16565b600160003373ffffffffffffffffffffffffffffffffffffffff1673ffffffffffffffffffffffffffffffffffffffff168152602001908152602001600020819055505b610c64813403600160008673ffffffffffffffffffffffffffffffffffffffff1673ffffffffffffffffffffffffffffffffffffffff16815260200190815260200160002054610eb790919063ffffffff16565b600160008573ffffffffffffffffffffffffffffffffffffffff1673ffffffffffffffffffffffffffffffffffffffff16815260200190815260200160002081905550610cf981600160008573ffffffffffffffffffffffffffffffffffffffff1673ffffffffffffffffffffffffffffffffffffffff16815260200190815260200160002054610eb790919063ffffffff16565b600160008473ffffffffffffffffffffffffffffffffffffffff1673ffffffffffffffffffffffffffffffffffffffff168152602001908152602001600020819055508173ffffffffffffffffffffffffffffffffffffffff168373ffffffffffffffffffffffffffffffffffffffff163373ffffffffffffffffffffffffffffffffffffffff167f5861cc23de8cab7630160dc0ee2c1e9aa2a0f1498f73c387807c0100e6684da7346040518082815260200191505060405180910390a4505050565b600073ffffffffffffffffffffffffffffffffffffffff168173ffffffffffffffffffffffffffffffffffffffff1614151515610df957600080fd5b8073ffffffffffffffffffffffffffffffffffffffff166000809054906101000a900473ffffffffffffffffffffffffffffffffffffffff1673ffffffffffffffffffffffffffffffffffffffff167f8be0079c531659141344cd1fd0a4f28419497f9722a3daafe3b4186f6b6457e060405160405180910390a3806000806101000a81548173ffffffffffffffffffffffffffffffffffffffff021916908373ffffffffffffffffffffffffffffffffffffffff16021790555050565b6000808284019050838110151515610ece57600080fd5b809150509291505056fea165627a7a72305820910cf55fc07b0ab70f77e23b9cbfcee1fb8573b6779ebd3e7f01a1a3e36277be0029",
  "source": "pragma solidity >=0.4.22 <0.6.0;\n\nimport \"./SafeMath.sol\";\nimport \"./States.sol\";\nimport \"./Ownable.sol\";\n\ncontract Splitter is States {\n\n\tusing SafeMath for uint;\n\n\tmapping (address => uint) public owedBalances;\n\n\tevent LogSplit(address indexed caller, address indexed address1, address indexed address2, uint amount);\n\tevent LogEtherRetrieved(address indexed caller, uint amount);\n\n\tconstructor(uint initState) public States(initState) {}\n\t\n\tfunction splitBalance(address addr1, address addr2) onlyIfActive public payable {\n\t\trequire (msg.value > 0);\n\t\trequire(addr1 != address(0));\n\t\trequire(addr2 != address(0));\n\n\t\tuint amountToSend = msg.value/2;\n\n\t\tif(msg.value % 2 == 1) owedBalances[msg.sender] = owedBalances[msg.sender].add(1);\n\n\t\towedBalances[addr1] = owedBalances[addr1].add(msg.value - amountToSend);\n\t\towedBalances[addr2] = owedBalances[addr2].add(amountToSend);\n\n\t\temit LogSplit(msg.sender, addr1, addr2, msg.value);\n\t}\n\t\n\tfunction retrieve() onlyIfActive public {\n\t\tuint amount = owedBalances[msg.sender];\n\n\t\towedBalances[msg.sender] = 0;\n\t\temit LogEtherRetrieved(msg.sender, amount);\n \n\t\tmsg.sender.transfer(amount);\n\t}\n}",
  "sourcePath": "/Users/miguelsoares/Projects/Training/Blockchain/b9Labs/Splitter/contracts/Splitter.sol",
  "compiler": {
    "name": "solc",
    "version": "0.5.0+commit.1d4f565a.Emscripten.clang"
  },
  "schemaVersion": "3.0.2",
  "updatedAt": "2019-03-13T16:00:12.026Z",
  "devdoc": {
    "methods": {}
  },
  "userdoc": {
    "methods": {}
  }
}