{
  "contractName": "Splitter",
  "abi": [
    {
      "constant": true,
      "inputs": [],
      "name": "owner",
      "outputs": [
        {
          "name": "",
          "type": "address"
        }
      ],
      "payable": false,
      "stateMutability": "view",
      "type": "function"
    },
    {
      "inputs": [],
      "payable": false,
      "stateMutability": "nonpayable",
      "type": "constructor"
    },
    {
      "anonymous": false,
      "inputs": [
        {
          "indexed": true,
          "name": "caller",
          "type": "address"
        },
        {
          "indexed": true,
          "name": "_address1",
          "type": "address"
        },
        {
          "indexed": true,
          "name": "_address2",
          "type": "address"
        },
        {
          "indexed": false,
          "name": "amount",
          "type": "uint256"
        }
      ],
      "name": "LogSplit",
      "type": "event"
    },
    {
      "anonymous": false,
      "inputs": [
        {
          "indexed": false,
          "name": "caller",
          "type": "address"
        },
        {
          "indexed": false,
          "name": "amount",
          "type": "uint256"
        }
      ],
      "name": "LogEtherRetrieved",
      "type": "event"
    },
    {
      "constant": false,
      "inputs": [
        {
          "name": "addr1",
          "type": "address"
        },
        {
          "name": "addr2",
          "type": "address"
        }
      ],
      "name": "splitBalance",
      "outputs": [],
      "payable": true,
      "stateMutability": "payable",
      "type": "function"
    },
    {
      "constant": false,
      "inputs": [],
      "name": "retrieve",
      "outputs": [],
      "payable": true,
      "stateMutability": "payable",
      "type": "function"
    },
    {
      "constant": false,
      "inputs": [],
      "name": "kill",
      "outputs": [
        {
          "name": "",
          "type": "bool"
        }
      ],
      "payable": false,
      "stateMutability": "nonpayable",
      "type": "function"
    }
  ],
  "bytecode": "0x608060405234801561001057600080fd5b50336000806101000a81548173ffffffffffffffffffffffffffffffffffffffff021916908373ffffffffffffffffffffffffffffffffffffffff1602179055506106d2806100606000396000f3fe608060405260043610610062576000357c0100000000000000000000000000000000000000000000000000000000900463ffffffff1680632e64cec11461006757806341c0e1b5146100715780638da5cb5b146100a0578063fed42cdc146100f7575b600080fd5b61006f61015b565b005b34801561007d57600080fd5b506100866102e9565b604051808215151515815260200191505060405180910390f35b3480156100ac57600080fd5b506100b561035f565b604051808273ffffffffffffffffffffffffffffffffffffffff1673ffffffffffffffffffffffffffffffffffffffff16815260200191505060405180910390f35b6101596004803603604081101561010d57600080fd5b81019080803573ffffffffffffffffffffffffffffffffffffffff169060200190929190803573ffffffffffffffffffffffffffffffffffffffff169060200190929190505050610384565b005b6000600160003373ffffffffffffffffffffffffffffffffffffffff1673ffffffffffffffffffffffffffffffffffffffff1681526020019081526020016000205490506101f181600160003373ffffffffffffffffffffffffffffffffffffffff1673ffffffffffffffffffffffffffffffffffffffff1681526020019081526020016000205461066390919063ffffffff16565b600160003373ffffffffffffffffffffffffffffffffffffffff1673ffffffffffffffffffffffffffffffffffffffff168152602001908152602001600020819055503373ffffffffffffffffffffffffffffffffffffffff166108fc829081150290604051600060405180830381858888f1935050505015801561027a573d6000803e3d6000fd5b507f33132fc5f2bf65aef6b1aa062fbc21e896f68d9de23e298aafefe4a15c7770813382604051808373ffffffffffffffffffffffffffffffffffffffff1673ffffffffffffffffffffffffffffffffffffffff1681526020018281526020019250505060405180910390a150565b60008060009054906101000a900473ffffffffffffffffffffffffffffffffffffffff1673ffffffffffffffffffffffffffffffffffffffff163373ffffffffffffffffffffffffffffffffffffffff1614151561034657600080fd5b3373ffffffffffffffffffffffffffffffffffffffff16ff5b6000809054906101000a900473ffffffffffffffffffffffffffffffffffffffff1681565b600073ffffffffffffffffffffffffffffffffffffffff168273ffffffffffffffffffffffffffffffffffffffff16141515156103c057600080fd5b600073ffffffffffffffffffffffffffffffffffffffff168173ffffffffffffffffffffffffffffffffffffffff16141515156103fc57600080fd5b600060023481151561040a57fe5b049050600160023481151561041b57fe5b0614156104b85761047460018060003373ffffffffffffffffffffffffffffffffffffffff1673ffffffffffffffffffffffffffffffffffffffff1681526020019081526020016000205461068590919063ffffffff16565b600160003373ffffffffffffffffffffffffffffffffffffffff1673ffffffffffffffffffffffffffffffffffffffff168152602001908152602001600020819055505b61050a81600160008673ffffffffffffffffffffffffffffffffffffffff1673ffffffffffffffffffffffffffffffffffffffff1681526020019081526020016000205461068590919063ffffffff16565b600160008573ffffffffffffffffffffffffffffffffffffffff1673ffffffffffffffffffffffffffffffffffffffff1681526020019081526020016000208190555061059f81600160008573ffffffffffffffffffffffffffffffffffffffff1673ffffffffffffffffffffffffffffffffffffffff1681526020019081526020016000205461068590919063ffffffff16565b600160008473ffffffffffffffffffffffffffffffffffffffff1673ffffffffffffffffffffffffffffffffffffffff168152602001908152602001600020819055508173ffffffffffffffffffffffffffffffffffffffff168373ffffffffffffffffffffffffffffffffffffffff163373ffffffffffffffffffffffffffffffffffffffff167f5861cc23de8cab7630160dc0ee2c1e9aa2a0f1498f73c387807c0100e6684da7346040518082815260200191505060405180910390a4505050565b600082821115151561067457600080fd5b600082840390508091505092915050565b600080828401905083811015151561069c57600080fd5b809150509291505056fea165627a7a723058201e66acbae7add84b8ff337f9aea6194f115802d23c074ffc43e4555d08eab07e0029",
  "source": "pragma solidity >=0.4.22 <0.6.0;\n\nimport \"./SafeMath.sol\";\n\ncontract Splitter {\n\n\tusing SafeMath for uint;\n\taddress public owner;\n\n\tmapping (address => uint) owedBalances;\n\n\tevent LogSplit(address indexed caller, address indexed _address1, address indexed _address2, uint amount);\n\tevent LogEtherRetrieved(address caller, uint amount);\n\t\n\t\n\tconstructor() public {\n\t\towner = msg.sender;\n\t}\n\n\tmodifier onlyOwner() { \n\t\trequire(msg.sender == owner); \n\t\t_; \n\t}\n\t\n\tfunction splitBalance(address addr1, address addr2) public payable {\n\t\trequire(addr1 != address(0));\n\t\trequire(addr2 != address(0));\n\n\t\tuint amountToSend = msg.value/2;\n\n\t\tif(msg.value % 2 == 1) owedBalances[msg.sender] = owedBalances[msg.sender].add(1);\n\t\towedBalances[addr1] = owedBalances[addr1].add(amountToSend);\n\t\towedBalances[addr2] = owedBalances[addr2].add(amountToSend);\n\n\t\temit LogSplit(msg.sender, addr1, addr2, msg.value);\n\t}\n\t\n\tfunction retrieve() public payable {\n\n\t\tuint amount = owedBalances[msg.sender];\n\t\towedBalances[msg.sender] = owedBalances[msg.sender].sub(amount); \n\t\tmsg.sender.transfer(amount);\n\n\t\temit LogEtherRetrieved(msg.sender, amount);\n\t}\n\n\tfunction kill() onlyOwner public returns (bool) {\n\t\tselfdestruct(msg.sender);\n\t\treturn true;\n\t}\n}",
  "sourcePath": "/Users/miguelsoares/Projects/Training/Blockchain/b9Labs/Splitter/contracts/Splitter.sol",
  "compiler": {
    "name": "solc",
    "version": "0.5.0+commit.1d4f565a.Emscripten.clang"
  },
  "schemaVersion": "3.0.2",
  "updatedAt": "2019-03-11T13:45:33.301Z",
  "devdoc": {
    "methods": {}
  },
  "userdoc": {
    "methods": {}
  }
}