{
  "contractName": "Splitter",
  "abi": [
    {
      "constant": true,
      "inputs": [],
      "name": "owner",
      "outputs": [
        {
          "name": "",
          "type": "address"
        }
      ],
      "payable": false,
      "stateMutability": "view",
      "type": "function"
    },
    {
      "inputs": [],
      "payable": false,
      "stateMutability": "nonpayable",
      "type": "constructor"
    },
    {
      "anonymous": false,
      "inputs": [
        {
          "indexed": false,
          "name": "_address1",
          "type": "address"
        },
        {
          "indexed": false,
          "name": "_address2",
          "type": "address"
        },
        {
          "indexed": false,
          "name": "amount",
          "type": "uint256"
        }
      ],
      "name": "LogSplit",
      "type": "event"
    },
    {
      "constant": false,
      "inputs": [
        {
          "name": "addr1",
          "type": "address"
        },
        {
          "name": "addr2",
          "type": "address"
        }
      ],
      "name": "splitBalance",
      "outputs": [],
      "payable": true,
      "stateMutability": "payable",
      "type": "function"
    },
    {
      "constant": false,
      "inputs": [],
      "name": "withdraw",
      "outputs": [
        {
          "name": "",
          "type": "bool"
        }
      ],
      "payable": true,
      "stateMutability": "payable",
      "type": "function"
    },
    {
      "constant": false,
      "inputs": [],
      "name": "kill",
      "outputs": [
        {
          "name": "",
          "type": "bool"
        }
      ],
      "payable": false,
      "stateMutability": "nonpayable",
      "type": "function"
    }
  ],
  "bytecode": "0x608060405234801561001057600080fd5b50336000806101000a81548173ffffffffffffffffffffffffffffffffffffffff021916908373ffffffffffffffffffffffffffffffffffffffff1602179055506106bb806100606000396000f3fe608060405260043610610062576000357c0100000000000000000000000000000000000000000000000000000000900463ffffffff1680633ccfd60b1461006757806341c0e1b5146100895780638da5cb5b146100b8578063fed42cdc1461010f575b600080fd5b61006f610173565b604051808215151515815260200191505060405180910390f35b34801561009557600080fd5b5061009e6103c3565b604051808215151515815260200191505060405180910390f35b3480156100c457600080fd5b506100cd610439565b604051808273ffffffffffffffffffffffffffffffffffffffff1673ffffffffffffffffffffffffffffffffffffffff16815260200191505060405180910390f35b6101716004803603604081101561012557600080fd5b81019080803573ffffffffffffffffffffffffffffffffffffffff169060200190929190803573ffffffffffffffffffffffffffffffffffffffff16906020019092919050505061045e565b005b60008060009054906101000a900473ffffffffffffffffffffffffffffffffffffffff1673ffffffffffffffffffffffffffffffffffffffff163373ffffffffffffffffffffffffffffffffffffffff16141515156101d157600080fd5b600260003373ffffffffffffffffffffffffffffffffffffffff1673ffffffffffffffffffffffffffffffffffffffff16815260200190815260200160002060009054906101000a900460ff16151515610293576040517f08c379a00000000000000000000000000000000000000000000000000000000081526004018080602001828103825260118152602001807f416c72656164792077697468647261776e00000000000000000000000000000081525060200191505060405180910390fd5b6000600160003373ffffffffffffffffffffffffffffffffffffffff1673ffffffffffffffffffffffffffffffffffffffff1681526020019081526020016000205490506000600160003373ffffffffffffffffffffffffffffffffffffffff1673ffffffffffffffffffffffffffffffffffffffff168152602001908152602001600020819055503373ffffffffffffffffffffffffffffffffffffffff166108fc829081150290604051600060405180830381858888f19350505050158015610362573d6000803e3d6000fd5b506001600260003373ffffffffffffffffffffffffffffffffffffffff1673ffffffffffffffffffffffffffffffffffffffff16815260200190815260200160002060006101000a81548160ff021916908315150217905550600191505090565b60008060009054906101000a900473ffffffffffffffffffffffffffffffffffffffff1673ffffffffffffffffffffffffffffffffffffffff163373ffffffffffffffffffffffffffffffffffffffff1614151561042057600080fd5b3373ffffffffffffffffffffffffffffffffffffffff16ff5b6000809054906101000a900473ffffffffffffffffffffffffffffffffffffffff1681565b6000809054906101000a900473ffffffffffffffffffffffffffffffffffffffff1673ffffffffffffffffffffffffffffffffffffffff163373ffffffffffffffffffffffffffffffffffffffff161415156104b957600080fd5b6000341115156104c857600080fd5b600073ffffffffffffffffffffffffffffffffffffffff168273ffffffffffffffffffffffffffffffffffffffff161415151561050457600080fd5b600073ffffffffffffffffffffffffffffffffffffffff168173ffffffffffffffffffffffffffffffffffffffff161415151561054057600080fd5b600060023481151561054e57fe5b049050600060023481151561055f57fe5b04905081600160008673ffffffffffffffffffffffffffffffffffffffff1673ffffffffffffffffffffffffffffffffffffffff1681526020019081526020016000208190555080600160008573ffffffffffffffffffffffffffffffffffffffff1673ffffffffffffffffffffffffffffffffffffffff168152602001908152602001600020819055507fccdce1ba8a318337c8272dcad903b86cf313f00b37bbb051b59b2f35a81c7c6a848434604051808473ffffffffffffffffffffffffffffffffffffffff1673ffffffffffffffffffffffffffffffffffffffff1681526020018373ffffffffffffffffffffffffffffffffffffffff1673ffffffffffffffffffffffffffffffffffffffff168152602001828152602001935050505060405180910390a15050505056fea165627a7a723058205438cb5d976f2a318ad95455a9325cef0c56d36f1b2bd68756b48e30fb49597d0029",
  "source": "pragma solidity >=0.4.25;\n\n/**\n * The Splitter contract does this and that...\n */\ncontract Splitter {\n\n\taddress public owner;\n    \n\tmapping (address => uint) splitAmount;\n\tmapping (address => bool) withdrawDone;\n\n\tevent LogSplit(address _address1, address _address2, uint amount);\n\t\n\tconstructor() public {\n\t    owner = msg.sender;\n\t}\n\n\tmodifier onlyOwner() { \n\t\trequire(msg.sender == owner); \n\t\t_; \n\t}\n\t\n\tfunction splitBalance(address addr1, address addr2) onlyOwner public payable {\n\t    require(msg.value > 0);\n\t\trequire(addr1 != address(0));\n\t\trequire(addr2 != address(0));\n\n        uint amountToSend1 = msg.value/2;\n        uint amountToSend2 = msg.value/2;\n        splitAmount[addr1] = amountToSend1;\n        splitAmount[addr2] = amountToSend2;\n        \n        emit LogSplit(addr1, addr2, msg.value);\n\t}\n\t\n\tfunction withdraw() public payable returns (bool) {\n\t    require(msg.sender != owner);\n\t    require(!withdrawDone[msg.sender], \"Already withdrawn\");\n\n    \tuint amount = splitAmount[msg.sender];\n        splitAmount[msg.sender] = 0; \n        msg.sender.transfer(amount);\n        withdrawDone[msg.sender] = true;\n        \n        return true;\n\t}\n\n\tfunction kill() onlyOwner public returns (bool) {\n    \tselfdestruct(msg.sender);\n    \treturn true;\n    }\n}",
  "sourcePath": "/Users/miguelsoares/Projects/Training/Blockchain/b9Labs/Splitter/contracts/Splitter.sol",
  "compiler": {
    "name": "solc",
    "version": "0.5.0+commit.1d4f565a.Emscripten.clang"
  },
  "schemaVersion": "3.0.2",
  "updatedAt": "2019-03-08T16:41:31.691Z",
  "devdoc": {
    "methods": {}
  },
  "userdoc": {
    "methods": {},
    "notice": "The Splitter contract does this and that..."
  }
}