{
  "contractName": "Splitter",
  "abi": [
    {
      "constant": false,
      "inputs": [],
      "name": "killContract",
      "outputs": [
        {
          "name": "",
          "type": "bool"
        }
      ],
      "payable": false,
      "stateMutability": "nonpayable",
      "type": "function"
    },
    {
      "constant": false,
      "inputs": [],
      "name": "pauseContract",
      "outputs": [
        {
          "name": "",
          "type": "bool"
        }
      ],
      "payable": false,
      "stateMutability": "nonpayable",
      "type": "function"
    },
    {
      "constant": false,
      "inputs": [],
      "name": "renounceOwnership",
      "outputs": [],
      "payable": false,
      "stateMutability": "nonpayable",
      "type": "function"
    },
    {
      "constant": true,
      "inputs": [
        {
          "name": "",
          "type": "address"
        }
      ],
      "name": "owedBalances",
      "outputs": [
        {
          "name": "",
          "type": "uint256"
        }
      ],
      "payable": false,
      "stateMutability": "view",
      "type": "function"
    },
    {
      "constant": true,
      "inputs": [],
      "name": "getOwner",
      "outputs": [
        {
          "name": "",
          "type": "address"
        }
      ],
      "payable": false,
      "stateMutability": "view",
      "type": "function"
    },
    {
      "constant": true,
      "inputs": [],
      "name": "isOwner",
      "outputs": [
        {
          "name": "",
          "type": "bool"
        }
      ],
      "payable": false,
      "stateMutability": "view",
      "type": "function"
    },
    {
      "constant": false,
      "inputs": [],
      "name": "resumeContract",
      "outputs": [
        {
          "name": "",
          "type": "bool"
        }
      ],
      "payable": false,
      "stateMutability": "nonpayable",
      "type": "function"
    },
    {
      "constant": false,
      "inputs": [
        {
          "name": "newOwner",
          "type": "address"
        }
      ],
      "name": "transferOwnership",
      "outputs": [],
      "payable": false,
      "stateMutability": "nonpayable",
      "type": "function"
    },
    {
      "inputs": [
        {
          "name": "initState",
          "type": "uint8"
        }
      ],
      "payable": false,
      "stateMutability": "nonpayable",
      "type": "constructor"
    },
    {
      "anonymous": false,
      "inputs": [
        {
          "indexed": true,
          "name": "caller",
          "type": "address"
        },
        {
          "indexed": true,
          "name": "address1",
          "type": "address"
        },
        {
          "indexed": true,
          "name": "address2",
          "type": "address"
        },
        {
          "indexed": false,
          "name": "amount",
          "type": "uint256"
        }
      ],
      "name": "LogSplit",
      "type": "event"
    },
    {
      "anonymous": false,
      "inputs": [
        {
          "indexed": true,
          "name": "caller",
          "type": "address"
        },
        {
          "indexed": false,
          "name": "amount",
          "type": "uint256"
        }
      ],
      "name": "LogEtherRetrieved",
      "type": "event"
    },
    {
      "anonymous": false,
      "inputs": [
        {
          "indexed": true,
          "name": "caller",
          "type": "address"
        }
      ],
      "name": "LogPausedContract",
      "type": "event"
    },
    {
      "anonymous": false,
      "inputs": [
        {
          "indexed": true,
          "name": "caller",
          "type": "address"
        }
      ],
      "name": "LogResumeContract",
      "type": "event"
    },
    {
      "anonymous": false,
      "inputs": [
        {
          "indexed": true,
          "name": "caller",
          "type": "address"
        }
      ],
      "name": "LogKilledContract",
      "type": "event"
    },
    {
      "anonymous": false,
      "inputs": [
        {
          "indexed": true,
          "name": "previousOwner",
          "type": "address"
        },
        {
          "indexed": true,
          "name": "newOwner",
          "type": "address"
        }
      ],
      "name": "OwnershipTransferred",
      "type": "event"
    },
    {
      "constant": false,
      "inputs": [
        {
          "name": "addr1",
          "type": "address"
        },
        {
          "name": "addr2",
          "type": "address"
        }
      ],
      "name": "splitBalance",
      "outputs": [],
      "payable": true,
      "stateMutability": "payable",
      "type": "function"
    },
    {
      "constant": false,
      "inputs": [],
      "name": "retrieve",
      "outputs": [],
      "payable": false,
      "stateMutability": "nonpayable",
      "type": "function"
    }
  ],
  "bytecode": "0x608060405234801561001057600080fd5b50604051602080610fdd8339810180604052602081101561003057600080fd5b810190808051906020019092919050505080336000806101000a81548173ffffffffffffffffffffffffffffffffffffffff021916908373ffffffffffffffffffffffffffffffffffffffff1602179055506000809054906101000a900473ffffffffffffffffffffffffffffffffffffffff1673ffffffffffffffffffffffffffffffffffffffff16600073ffffffffffffffffffffffffffffffffffffffff167f8be0079c531659141344cd1fd0a4f28419497f9722a3daafe3b4186f6b6457e060405160405180910390a360028081111561010a57fe5b81600281111561011657fe5b1415151561012357600080fd5b80600060146101000a81548160ff0219169083600281111561014157fe5b02179055505050610e86806101576000396000f3fe6080604052600436106100a4576000357c0100000000000000000000000000000000000000000000000000000000900463ffffffff1680631c02708d146100a95780632e64cec1146100d8578063439766ce146100ef578063715018a61461011e5780638459862014610135578063893d20e81461019a5780638f32d59b146101f1578063c4bc5da514610220578063f2fde38b1461024f578063fed42cdc146102a0575b600080fd5b3480156100b557600080fd5b506100be610304565b604051808215151515815260200191505060405180910390f35b3480156100e457600080fd5b506100ed610424565b005b3480156100fb57600080fd5b506101046105ef565b604051808215151515815260200191505060405180910390f35b34801561012a57600080fd5b5061013361070e565b005b34801561014157600080fd5b506101846004803603602081101561015857600080fd5b81019080803573ffffffffffffffffffffffffffffffffffffffff1690602001909291905050506107e0565b6040518082815260200191505060405180910390f35b3480156101a657600080fd5b506101af6107f8565b604051808273ffffffffffffffffffffffffffffffffffffffff1673ffffffffffffffffffffffffffffffffffffffff16815260200191505060405180910390f35b3480156101fd57600080fd5b50610206610821565b604051808215151515815260200191505060405180910390f35b34801561022c57600080fd5b50610235610878565b604051808215151515815260200191505060405180910390f35b34801561025b57600080fd5b5061029e6004803603602081101561027257600080fd5b81019080803573ffffffffffffffffffffffffffffffffffffffff169060200190929190505050610997565b005b610302600480360360408110156102b657600080fd5b81019080803573ffffffffffffffffffffffffffffffffffffffff169060200190929190803573ffffffffffffffffffffffffffffffffffffffff1690602001909291905050506109b6565b005b600061030e610821565b151561031957600080fd5b6001600281111561032657fe5b600060149054906101000a900460ff16600281111561034157fe5b1415156103b6576040517f08c379a000000000000000000000000000000000000000000000000000000000815260040180806020018281038252601a8152602001807f4572726f723a20636f6e7472616374206e6f742070617573656400000000000081525060200191505060405180910390fd5b6002600060146101000a81548160ff021916908360028111156103d557fe5b02179055503373ffffffffffffffffffffffffffffffffffffffff167f2e509d9c7e2b2882b34a980d42eb39a18aff611ca02afffa9daa7861d97efa5760405160405180910390a26001905090565b6000600281111561043157fe5b600060149054906101000a900460ff16600281111561044c57fe5b1415156104c1576040517f08c379a00000000000000000000000000000000000000000000000000000000081526004018080602001828103825260208152602001807f4572726f723a20636f6e747261637420706175736564206f72206b696c6c656481525060200191505060405180910390fd5b6000600160003373ffffffffffffffffffffffffffffffffffffffff1673ffffffffffffffffffffffffffffffffffffffff1681526020019081526020016000205490506000600160003373ffffffffffffffffffffffffffffffffffffffff1673ffffffffffffffffffffffffffffffffffffffff1681526020019081526020016000205411151561055357600080fd5b600090503373ffffffffffffffffffffffffffffffffffffffff167f33132fc5f2bf65aef6b1aa062fbc21e896f68d9de23e298aafefe4a15c777081826040518082815260200191505060405180910390a23373ffffffffffffffffffffffffffffffffffffffff166108fc829081150290604051600060405180830381858888f193505050501580156105eb573d6000803e3d6000fd5b5050565b60008060028111156105fd57fe5b600060149054906101000a900460ff16600281111561061857fe5b14151561068d576040517f08c379a00000000000000000000000000000000000000000000000000000000081526004018080602001828103825260208152602001807f4572726f723a20636f6e747261637420706175736564206f72206b696c6c656481525060200191505060405180910390fd5b610695610821565b15156106a057600080fd5b6001600060146101000a81548160ff021916908360028111156106bf57fe5b02179055503373ffffffffffffffffffffffffffffffffffffffff167f0f16e24f375b1dbe1f5a889ed7cfe74cc12486509f3d710d14078f001874362260405160405180910390a26001905090565b610716610821565b151561072157600080fd5b600073ffffffffffffffffffffffffffffffffffffffff166000809054906101000a900473ffffffffffffffffffffffffffffffffffffffff1673ffffffffffffffffffffffffffffffffffffffff167f8be0079c531659141344cd1fd0a4f28419497f9722a3daafe3b4186f6b6457e060405160405180910390a360008060006101000a81548173ffffffffffffffffffffffffffffffffffffffff021916908373ffffffffffffffffffffffffffffffffffffffff160217905550565b60016020528060005260406000206000915090505481565b60008060009054906101000a900473ffffffffffffffffffffffffffffffffffffffff16905090565b60008060009054906101000a900473ffffffffffffffffffffffffffffffffffffffff1673ffffffffffffffffffffffffffffffffffffffff163373ffffffffffffffffffffffffffffffffffffffff1614905090565b6000610882610821565b151561088d57600080fd5b6001600281111561089a57fe5b600060149054906101000a900460ff1660028111156108b557fe5b14151561092a576040517f08c379a000000000000000000000000000000000000000000000000000000000815260040180806020018281038252601a8152602001807f4572726f723a20636f6e7472616374206e6f742070617573656400000000000081525060200191505060405180910390fd5b60008060146101000a81548160ff0219169083600281111561094857fe5b02179055503373ffffffffffffffffffffffffffffffffffffffff167f1f98e15848335d04a3b0c6ed4988542831246d3ae2250d2ad35485b34e6945b060405160405180910390a26001905090565b61099f610821565b15156109aa57600080fd5b6109b381610d15565b50565b600060028111156109c357fe5b600060149054906101000a900460ff1660028111156109de57fe5b141515610a53576040517f08c379a00000000000000000000000000000000000000000000000000000000081526004018080602001828103825260208152602001807f4572726f723a20636f6e747261637420706175736564206f72206b696c6c656481525060200191505060405180910390fd5b600034111515610a6257600080fd5b600073ffffffffffffffffffffffffffffffffffffffff168273ffffffffffffffffffffffffffffffffffffffff1614151515610a9e57600080fd5b600073ffffffffffffffffffffffffffffffffffffffff168173ffffffffffffffffffffffffffffffffffffffff1614151515610ada57600080fd5b8173ffffffffffffffffffffffffffffffffffffffff163373ffffffffffffffffffffffffffffffffffffffff1614151515610b1557600080fd5b8073ffffffffffffffffffffffffffffffffffffffff163373ffffffffffffffffffffffffffffffffffffffff1614151515610b5057600080fd5b6000610b66600234610e0f90919063ffffffff16565b9050610bbc813403600160008673ffffffffffffffffffffffffffffffffffffffff1673ffffffffffffffffffffffffffffffffffffffff16815260200190815260200160002054610e3990919063ffffffff16565b600160008573ffffffffffffffffffffffffffffffffffffffff1673ffffffffffffffffffffffffffffffffffffffff16815260200190815260200160002081905550610c5181600160008573ffffffffffffffffffffffffffffffffffffffff1673ffffffffffffffffffffffffffffffffffffffff16815260200190815260200160002054610e3990919063ffffffff16565b600160008473ffffffffffffffffffffffffffffffffffffffff1673ffffffffffffffffffffffffffffffffffffffff168152602001908152602001600020819055508173ffffffffffffffffffffffffffffffffffffffff168373ffffffffffffffffffffffffffffffffffffffff163373ffffffffffffffffffffffffffffffffffffffff167f5861cc23de8cab7630160dc0ee2c1e9aa2a0f1498f73c387807c0100e6684da7346040518082815260200191505060405180910390a4505050565b600073ffffffffffffffffffffffffffffffffffffffff168173ffffffffffffffffffffffffffffffffffffffff1614151515610d5157600080fd5b8073ffffffffffffffffffffffffffffffffffffffff166000809054906101000a900473ffffffffffffffffffffffffffffffffffffffff1673ffffffffffffffffffffffffffffffffffffffff167f8be0079c531659141344cd1fd0a4f28419497f9722a3daafe3b4186f6b6457e060405160405180910390a3806000806101000a81548173ffffffffffffffffffffffffffffffffffffffff021916908373ffffffffffffffffffffffffffffffffffffffff16021790555050565b60008082111515610e1f57600080fd5b60008284811515610e2c57fe5b0490508091505092915050565b6000808284019050838110151515610e5057600080fd5b809150509291505056fea165627a7a723058206fd78df62d160e12211847d0b6e9076b9cb83b511c635fe3fc825c408c6421800029",
  "source": "pragma solidity >=0.4.22 <0.6.0;\n\nimport \"./SafeMath.sol\";\nimport \"./States.sol\";\nimport \"./Ownable.sol\";\n\ncontract Splitter is States {\n\n\tusing SafeMath for uint;\n\n\tmapping (address => uint) public owedBalances;\n\n\tevent LogSplit(address indexed caller, address indexed address1, address indexed address2, uint amount);\n\tevent LogEtherRetrieved(address indexed caller, uint amount);\n\n\tconstructor(State initState) public States(initState) {}\n\t\n\tfunction splitBalance(address addr1, address addr2) onlyIfActive public payable {\n\t\trequire (msg.value > 0);\n\t\trequire(addr1 != address(0));\n\t\trequire(addr2 != address(0));\n\t\trequire(msg.sender != addr1);\n\t\trequire(msg.sender != addr2);\n\n\t\tuint amountToSend = msg.value.div(2);\n\n\t\towedBalances[addr1] = owedBalances[addr1].add(msg.value - amountToSend);\n\t\towedBalances[addr2] = owedBalances[addr2].add(amountToSend);\n\n\t\temit LogSplit(msg.sender, addr1, addr2, msg.value);\n\t}\n\t\n\tfunction retrieve() onlyIfActive public {\n\t\tuint amount = owedBalances[msg.sender];\n\n\t    require (owedBalances[msg.sender] > 0);\n\n\t\tamount = 0;\n\t\temit LogEtherRetrieved(msg.sender, amount);\n \n\t\tmsg.sender.transfer(amount);\n\t}\n}",
  "sourcePath": "/Users/miguelsoares/Projects/Training/Blockchain/b9Labs/Splitter/contracts/Splitter.sol",
  "compiler": {
    "name": "solc",
    "version": "0.5.0+commit.1d4f565a.Emscripten.clang"
  },
  "schemaVersion": "3.0.2",
  "updatedAt": "2019-03-14T15:25:32.710Z",
  "devdoc": {
    "methods": {}
  },
  "userdoc": {
    "methods": {}
  }
}