{
  "contractName": "Splitter",
  "abi": [
    {
      "constant": true,
      "inputs": [],
      "name": "owner",
      "outputs": [
        {
          "name": "",
          "type": "address"
        }
      ],
      "payable": false,
      "stateMutability": "view",
      "type": "function"
    },
    {
      "constant": true,
      "inputs": [],
      "name": "totalBalance",
      "outputs": [
        {
          "name": "",
          "type": "uint256"
        }
      ],
      "payable": false,
      "stateMutability": "view",
      "type": "function"
    },
    {
      "inputs": [
        {
          "name": "addresses",
          "type": "address[2]"
        }
      ],
      "payable": false,
      "stateMutability": "nonpayable",
      "type": "constructor"
    },
    {
      "anonymous": false,
      "inputs": [
        {
          "indexed": false,
          "name": "recipient",
          "type": "address"
        },
        {
          "indexed": false,
          "name": "amount",
          "type": "uint256"
        },
        {
          "indexed": false,
          "name": "sent",
          "type": "bool"
        }
      ],
      "name": "LogEthSent",
      "type": "event"
    },
    {
      "anonymous": false,
      "inputs": [
        {
          "indexed": false,
          "name": "_address",
          "type": "address"
        },
        {
          "indexed": false,
          "name": "isAdded",
          "type": "bool"
        }
      ],
      "name": "LogPersonAdded",
      "type": "event"
    },
    {
      "anonymous": false,
      "inputs": [
        {
          "indexed": true,
          "name": "from",
          "type": "address"
        },
        {
          "indexed": false,
          "name": "add1",
          "type": "address"
        },
        {
          "indexed": false,
          "name": "add2",
          "type": "address"
        },
        {
          "indexed": false,
          "name": "_amount",
          "type": "uint256"
        }
      ],
      "name": "LogSplitSent",
      "type": "event"
    },
    {
      "constant": false,
      "inputs": [],
      "name": "sendEth",
      "outputs": [],
      "payable": true,
      "stateMutability": "payable",
      "type": "function"
    },
    {
      "constant": false,
      "inputs": [],
      "name": "splitBalance",
      "outputs": [],
      "payable": false,
      "stateMutability": "nonpayable",
      "type": "function"
    }
  ],
  "bytecode": "0x608060405234801561001057600080fd5b506040516040806104ca8339810180604052604081101561003057600080fd5b810190809190505080600390600261004992919061012a565b50600073ffffffffffffffffffffffffffffffffffffffff166003600060028110151561007257fe5b0160009054906101000a900473ffffffffffffffffffffffffffffffffffffffff1673ffffffffffffffffffffffffffffffffffffffff16141515156100b757600080fd5b600073ffffffffffffffffffffffffffffffffffffffff16600360016002811015156100df57fe5b0160009054906101000a900473ffffffffffffffffffffffffffffffffffffffff1673ffffffffffffffffffffffffffffffffffffffff161415151561012457600080fd5b506101ea565b8260028101928215610196579160200282015b828111156101955782518260006101000a81548173ffffffffffffffffffffffffffffffffffffffff021916908373ffffffffffffffffffffffffffffffffffffffff1602179055509160200191906001019061013d565b5b5090506101a391906101a7565b5090565b6101e791905b808211156101e357600081816101000a81549073ffffffffffffffffffffffffffffffffffffffff0219169055506001016101ad565b5090565b90565b6102d1806101f96000396000f3fe608060405260043610610062576000357c0100000000000000000000000000000000000000000000000000000000900463ffffffff16806306e99fef14610067578063449c847c146100715780638da5cb5b14610088578063ad7a672f146100df575b600080fd5b61006f61010a565b005b34801561007d57600080fd5b50610086610215565b005b34801561009457600080fd5b5061009d610279565b604051808273ffffffffffffffffffffffffffffffffffffffff1673ffffffffffffffffffffffffffffffffffffffff16815260200191505060405180910390f35b3480156100eb57600080fd5b506100f461029f565b6040518082815260200191505060405180910390f35b600160009054906101000a900473ffffffffffffffffffffffffffffffffffffffff1673ffffffffffffffffffffffffffffffffffffffff163373ffffffffffffffffffffffffffffffffffffffff1614151561016657600080fd5b343373ffffffffffffffffffffffffffffffffffffffff16311015151561018c57600080fd5b3460008082825401925050819055507f513f91804b10bb35c32583928ce22e8c8395cca3bb9cd362481607bfcb60c51933346001604051808473ffffffffffffffffffffffffffffffffffffffff1673ffffffffffffffffffffffffffffffffffffffff16815260200183815260200182151515158152602001935050505060405180910390a1565b6000600260005481151561022557fe5b049050600080819055503373ffffffffffffffffffffffffffffffffffffffff166108fc829081150290604051600060405180830381858888f19350505050158015610275573d6000803e3d6000fd5b5050565b600160009054906101000a900473ffffffffffffffffffffffffffffffffffffffff1681565b6000548156fea165627a7a723058201278ddfab766723d88a100dac6bc778367fb602237909c52698cd812b230b9650029",
  "source": "pragma solidity >=0.4.25;\n\n/**\n * The Splitter contract does this and that...\n */\ncontract Splitter {\n\n\tuint public totalBalance;\n\taddress public owner;\n    \n// \tstruct Person {\n// \t\taddress person;\n// \t\tstring name;\n// \t}\n\n\t// mapping (address => uint) public personId;\n\t// Person[] public people;\n\tuint peopleCount;\n\taddress[2] addr;\n\n\n\tevent LogEthSent(address recipient, uint amount, bool sent);\n\tevent LogPersonAdded(address _address, bool isAdded);\n\tevent LogSplitSent(address indexed from, address add1, address add2, uint _amount);\n\n\t\n\tconstructor(address[2] memory addresses) public {\n\t    addr = addresses;\n\t\trequire (addr[0] != address(0));\n\t\trequire(addr[1] != address(0));\n\t}\n\n\tmodifier onlyOwner() { \n\t\trequire (msg.sender == owner); \n\t\t_; \n\t}\n\t\n\t// function addPerson(address _personAddr, string memory _personName) public {\n\t// \tuint id = personId[_personAddr];\n\t// \tif (id == 0) {\n\t// \t\tpersonId[_personAddr] = people.length;\n\t// \t\tid = people.length++;\n\t// \t}\n\t// \tpeople[id] = Person({person: _personAddr, name: _personName});\n\t// \temit LogPersonAdded(_personAddr, true);\n\t// }\n\n\tfunction sendEth() payable public onlyOwner {\n\t\trequire (msg.sender.balance >= msg.value);\n\n\t\ttotalBalance += msg.value;\n\t\temit LogEthSent(msg.sender, msg.value, true);  \n\t}\n\t\n\tfunction splitBalance() public {\n\t\tuint valueToSplit = totalBalance/addr.length;\n\t\t\n\t\ttotalBalance = 0;\n\t\tmsg.sender.transfer(valueToSplit);\n\n\t\t// emit LogSplitSent(msg.sender, address1, address2, msg.value);\n\n\t}\n\t\n    // function() {\n    //     revert();\n    // }\n}",
  "sourcePath": "/Users/miguelsoares/Projects/Training/Blockchain/b9Labs/Splitter/contracts/Splitter.sol",
  "compiler": {
    "name": "solc",
    "version": "0.5.0+commit.1d4f565a.Emscripten.clang"
  },
  "schemaVersion": "3.0.2",
  "updatedAt": "2019-03-08T14:26:40.208Z",
  "devdoc": {
    "methods": {}
  },
  "userdoc": {
    "methods": {},
    "notice": "The Splitter contract does this and that..."
  }
}