{
  "contractName": "States",
  "abi": [
    {
      "constant": false,
      "inputs": [],
      "name": "renounceOwnership",
      "outputs": [],
      "payable": false,
      "stateMutability": "nonpayable",
      "type": "function"
    },
    {
      "constant": true,
      "inputs": [],
      "name": "owner",
      "outputs": [
        {
          "name": "",
          "type": "address"
        }
      ],
      "payable": false,
      "stateMutability": "view",
      "type": "function"
    },
    {
      "constant": true,
      "inputs": [],
      "name": "isOwner",
      "outputs": [
        {
          "name": "",
          "type": "bool"
        }
      ],
      "payable": false,
      "stateMutability": "view",
      "type": "function"
    },
    {
      "constant": false,
      "inputs": [
        {
          "name": "newOwner",
          "type": "address"
        }
      ],
      "name": "transferOwnership",
      "outputs": [],
      "payable": false,
      "stateMutability": "nonpayable",
      "type": "function"
    },
    {
      "inputs": [],
      "payable": false,
      "stateMutability": "nonpayable",
      "type": "constructor"
    },
    {
      "anonymous": false,
      "inputs": [
        {
          "indexed": true,
          "name": "previousOwner",
          "type": "address"
        },
        {
          "indexed": true,
          "name": "newOwner",
          "type": "address"
        }
      ],
      "name": "OwnershipTransferred",
      "type": "event"
    },
    {
      "constant": false,
      "inputs": [],
      "name": "pauseContract",
      "outputs": [
        {
          "name": "",
          "type": "bool"
        }
      ],
      "payable": false,
      "stateMutability": "nonpayable",
      "type": "function"
    },
    {
      "constant": false,
      "inputs": [],
      "name": "resumeContract",
      "outputs": [
        {
          "name": "",
          "type": "bool"
        }
      ],
      "payable": false,
      "stateMutability": "nonpayable",
      "type": "function"
    },
    {
      "constant": false,
      "inputs": [],
      "name": "killContract",
      "outputs": [
        {
          "name": "",
          "type": "bool"
        }
      ],
      "payable": false,
      "stateMutability": "nonpayable",
      "type": "function"
    }
  ],
  "bytecode": "0x608060405234801561001057600080fd5b50336000806101000a81548173ffffffffffffffffffffffffffffffffffffffff021916908373ffffffffffffffffffffffffffffffffffffffff1602179055506000809054906101000a900473ffffffffffffffffffffffffffffffffffffffff1673ffffffffffffffffffffffffffffffffffffffff16600073ffffffffffffffffffffffffffffffffffffffff167f8be0079c531659141344cd1fd0a4f28419497f9722a3daafe3b4186f6b6457e060405160405180910390a360008060146101000a81548160ff021916908360028111156100eb57fe5b021790555061072f806100ff6000396000f3fe608060405260043610610083576000357c0100000000000000000000000000000000000000000000000000000000900463ffffffff1680631c02708d14610088578063439766ce146100b7578063715018a6146100e65780638da5cb5b146100fd5780638f32d59b14610154578063c4bc5da514610183578063f2fde38b146101b2575b600080fd5b34801561009457600080fd5b5061009d610203565b604051808215151515815260200191505060405180910390f35b3480156100c357600080fd5b506100cc6102e0565b604051808215151515815260200191505060405180910390f35b3480156100f257600080fd5b506100fb6103bc565b005b34801561010957600080fd5b5061011261048e565b604051808273ffffffffffffffffffffffffffffffffffffffff1673ffffffffffffffffffffffffffffffffffffffff16815260200191505060405180910390f35b34801561016057600080fd5b506101696104b7565b604051808215151515815260200191505060405180910390f35b34801561018f57600080fd5b5061019861050e565b604051808215151515815260200191505060405180910390f35b3480156101be57600080fd5b50610201600480360360208110156101d557600080fd5b81019080803573ffffffffffffffffffffffffffffffffffffffff1690602001909291905050506105ea565b005b600061020d6104b7565b151561021857600080fd5b6001600281111561022557fe5b600060149054906101000a900460ff16600281111561024057fe5b1415156102b5576040517f08c379a000000000000000000000000000000000000000000000000000000000815260040180806020018281038252601a8152602001807f4572726f723a20636f6e7472616374206e6f742070617573656400000000000081525060200191505060405180910390fd5b6002600060146101000a81548160ff021916908360028111156102d457fe5b02179055506001905090565b60008060028111156102ee57fe5b600060149054906101000a900460ff16600281111561030957fe5b14151561037e576040517f08c379a00000000000000000000000000000000000000000000000000000000081526004018080602001828103825260208152602001807f4572726f723a20636f6e747261637420706175736564206f72206b696c6c656481525060200191505060405180910390fd5b6103866104b7565b151561039157600080fd5b6001600060146101000a81548160ff021916908360028111156103b057fe5b02179055506001905090565b6103c46104b7565b15156103cf57600080fd5b600073ffffffffffffffffffffffffffffffffffffffff166000809054906101000a900473ffffffffffffffffffffffffffffffffffffffff1673ffffffffffffffffffffffffffffffffffffffff167f8be0079c531659141344cd1fd0a4f28419497f9722a3daafe3b4186f6b6457e060405160405180910390a360008060006101000a81548173ffffffffffffffffffffffffffffffffffffffff021916908373ffffffffffffffffffffffffffffffffffffffff160217905550565b60008060009054906101000a900473ffffffffffffffffffffffffffffffffffffffff16905090565b60008060009054906101000a900473ffffffffffffffffffffffffffffffffffffffff1673ffffffffffffffffffffffffffffffffffffffff163373ffffffffffffffffffffffffffffffffffffffff1614905090565b60006105186104b7565b151561052357600080fd5b6001600281111561053057fe5b600060149054906101000a900460ff16600281111561054b57fe5b1415156105c0576040517f08c379a000000000000000000000000000000000000000000000000000000000815260040180806020018281038252601a8152602001807f4572726f723a20636f6e7472616374206e6f742070617573656400000000000081525060200191505060405180910390fd5b60008060146101000a81548160ff021916908360028111156105de57fe5b02179055506001905090565b6105f26104b7565b15156105fd57600080fd5b61060681610609565b50565b600073ffffffffffffffffffffffffffffffffffffffff168173ffffffffffffffffffffffffffffffffffffffff161415151561064557600080fd5b8073ffffffffffffffffffffffffffffffffffffffff166000809054906101000a900473ffffffffffffffffffffffffffffffffffffffff1673ffffffffffffffffffffffffffffffffffffffff167f8be0079c531659141344cd1fd0a4f28419497f9722a3daafe3b4186f6b6457e060405160405180910390a3806000806101000a81548173ffffffffffffffffffffffffffffffffffffffff021916908373ffffffffffffffffffffffffffffffffffffffff1602179055505056fea165627a7a72305820c67386cb785bc1faeb87e6002294efc738d4f3fd5cdd7b29d2ccd98115dd69940029",
  "source": "pragma solidity >=0.4.22 <0.6.0;\n\nimport \"./Ownable.sol\";\n\ncontract States is Ownable {\n    \n    enum State {Active, Paused, Killed}\n    State private state;\n\n    modifier onlyIfActive {\n        require(state == State.Active, \"Error: contract paused or killed\");\n        _;\n    }\n\n    modifier onlyIfPaused {\n        require(state == State.Paused, \"Error: contract not paused\");\n        _;\n    }\n\n    constructor() public {\n        state = State.Active;\n    }\n\n    function pauseContract() public onlyIfActive onlyOwner returns(bool) {\n        state = State.Paused;\n        return true;\n    }\n\n    function resumeContract() public onlyOwner onlyIfPaused returns(bool) {\n        state = State.Active;\n        return true;\n    }\n\n    function killContract() public onlyOwner onlyIfPaused returns (bool) {\n        state = State.Killed;\n        return true;\n    }\n\n}\n",
  "sourcePath": "/Users/miguelsoares/Projects/Training/Blockchain/b9Labs/Splitter/contracts/States.sol",
  "compiler": {
    "name": "solc",
    "version": "0.5.0+commit.1d4f565a.Emscripten.clang"
  },
  "schemaVersion": "3.0.2",
  "updatedAt": "2019-03-12T16:23:06.168Z",
  "devdoc": {
    "methods": {
      "isOwner()": {
        "return": "true if `msg.sender` is the owner of the contract."
      },
      "owner()": {
        "return": "the address of the owner."
      },
      "renounceOwnership()": {
        "details": "Allows the current owner to relinquish control of the contract. It will not be possible to call the functions with the `onlyOwner` modifier anymore."
      },
      "transferOwnership(address)": {
        "details": "Allows the current owner to transfer control of the contract to a newOwner.",
        "params": {
          "newOwner": "The address to transfer ownership to."
        }
      }
    }
  },
  "userdoc": {
    "methods": {
      "renounceOwnership()": {
        "notice": "Renouncing ownership will leave the contract without an owner, thereby removing any functionality that is only available to the owner."
      }
    }
  }
}