{
  "contractName": "States",
  "abi": [
    {
      "constant": false,
      "inputs": [],
      "name": "renounceOwnership",
      "outputs": [],
      "payable": false,
      "stateMutability": "nonpayable",
      "type": "function"
    },
    {
      "constant": true,
      "inputs": [],
      "name": "getOwner",
      "outputs": [
        {
          "name": "",
          "type": "address"
        }
      ],
      "payable": false,
      "stateMutability": "view",
      "type": "function"
    },
    {
      "constant": true,
      "inputs": [],
      "name": "isOwner",
      "outputs": [
        {
          "name": "",
          "type": "bool"
        }
      ],
      "payable": false,
      "stateMutability": "view",
      "type": "function"
    },
    {
      "constant": true,
      "inputs": [],
      "name": "_owner",
      "outputs": [
        {
          "name": "",
          "type": "address"
        }
      ],
      "payable": false,
      "stateMutability": "view",
      "type": "function"
    },
    {
      "constant": false,
      "inputs": [
        {
          "name": "newOwner",
          "type": "address"
        }
      ],
      "name": "transferOwnership",
      "outputs": [],
      "payable": false,
      "stateMutability": "nonpayable",
      "type": "function"
    },
    {
      "inputs": [
        {
          "name": "initState",
          "type": "uint256"
        }
      ],
      "payable": false,
      "stateMutability": "nonpayable",
      "type": "constructor"
    },
    {
      "anonymous": false,
      "inputs": [
        {
          "indexed": true,
          "name": "caller",
          "type": "address"
        }
      ],
      "name": "LogPausedContract",
      "type": "event"
    },
    {
      "anonymous": false,
      "inputs": [
        {
          "indexed": true,
          "name": "caller",
          "type": "address"
        }
      ],
      "name": "LogResumeContract",
      "type": "event"
    },
    {
      "anonymous": false,
      "inputs": [
        {
          "indexed": true,
          "name": "caller",
          "type": "address"
        }
      ],
      "name": "LogKilledContract",
      "type": "event"
    },
    {
      "anonymous": false,
      "inputs": [
        {
          "indexed": true,
          "name": "previousOwner",
          "type": "address"
        },
        {
          "indexed": true,
          "name": "newOwner",
          "type": "address"
        }
      ],
      "name": "OwnershipTransferred",
      "type": "event"
    },
    {
      "constant": false,
      "inputs": [],
      "name": "pauseContract",
      "outputs": [
        {
          "name": "",
          "type": "bool"
        }
      ],
      "payable": false,
      "stateMutability": "nonpayable",
      "type": "function"
    },
    {
      "constant": false,
      "inputs": [],
      "name": "resumeContract",
      "outputs": [
        {
          "name": "",
          "type": "bool"
        }
      ],
      "payable": false,
      "stateMutability": "nonpayable",
      "type": "function"
    },
    {
      "constant": false,
      "inputs": [],
      "name": "killContract",
      "outputs": [
        {
          "name": "",
          "type": "bool"
        }
      ],
      "payable": false,
      "stateMutability": "nonpayable",
      "type": "function"
    }
  ],
  "bytecode": "0x608060405234801561001057600080fd5b506040516020806109ea8339810180604052602081101561003057600080fd5b8101908080519060200190929190505050336000806101000a81548173ffffffffffffffffffffffffffffffffffffffff021916908373ffffffffffffffffffffffffffffffffffffffff1602179055506000809054906101000a900473ffffffffffffffffffffffffffffffffffffffff1673ffffffffffffffffffffffffffffffffffffffff16600073ffffffffffffffffffffffffffffffffffffffff167f8be0079c531659141344cd1fd0a4f28419497f9722a3daafe3b4186f6b6457e060405160405180910390a360028081111561010957fe5b81600281111561011557fe5b600281111561012057fe5b1415151561012d57600080fd5b80600281111561013957fe5b600060146101000a81548160ff0219169083600281111561015657fe5b02179055505061087f8061016b6000396000f3fe60806040526004361061008e576000357c0100000000000000000000000000000000000000000000000000000000900463ffffffff1680631c02708d14610093578063439766ce146100c2578063715018a6146100f1578063893d20e8146101085780638f32d59b1461015f578063b2bdfa7b1461018e578063c4bc5da5146101e5578063f2fde38b14610214575b600080fd5b34801561009f57600080fd5b506100a8610265565b604051808215151515815260200191505060405180910390f35b3480156100ce57600080fd5b506100d7610385565b604051808215151515815260200191505060405180910390f35b3480156100fd57600080fd5b506101066104a4565b005b34801561011457600080fd5b5061011d610576565b604051808273ffffffffffffffffffffffffffffffffffffffff1673ffffffffffffffffffffffffffffffffffffffff16815260200191505060405180910390f35b34801561016b57600080fd5b5061017461059f565b604051808215151515815260200191505060405180910390f35b34801561019a57600080fd5b506101a36105f6565b604051808273ffffffffffffffffffffffffffffffffffffffff1673ffffffffffffffffffffffffffffffffffffffff16815260200191505060405180910390f35b3480156101f157600080fd5b506101fa61061b565b604051808215151515815260200191505060405180910390f35b34801561022057600080fd5b506102636004803603602081101561023757600080fd5b81019080803573ffffffffffffffffffffffffffffffffffffffff16906020019092919050505061073a565b005b600061026f61059f565b151561027a57600080fd5b6001600281111561028757fe5b600060149054906101000a900460ff1660028111156102a257fe5b141515610317576040517f08c379a000000000000000000000000000000000000000000000000000000000815260040180806020018281038252601a8152602001807f4572726f723a20636f6e7472616374206e6f742070617573656400000000000081525060200191505060405180910390fd5b6002600060146101000a81548160ff0219169083600281111561033657fe5b02179055503373ffffffffffffffffffffffffffffffffffffffff167f2e509d9c7e2b2882b34a980d42eb39a18aff611ca02afffa9daa7861d97efa5760405160405180910390a26001905090565b600080600281111561039357fe5b600060149054906101000a900460ff1660028111156103ae57fe5b141515610423576040517f08c379a00000000000000000000000000000000000000000000000000000000081526004018080602001828103825260208152602001807f4572726f723a20636f6e747261637420706175736564206f72206b696c6c656481525060200191505060405180910390fd5b61042b61059f565b151561043657600080fd5b6001600060146101000a81548160ff0219169083600281111561045557fe5b02179055503373ffffffffffffffffffffffffffffffffffffffff167f0f16e24f375b1dbe1f5a889ed7cfe74cc12486509f3d710d14078f001874362260405160405180910390a26001905090565b6104ac61059f565b15156104b757600080fd5b600073ffffffffffffffffffffffffffffffffffffffff166000809054906101000a900473ffffffffffffffffffffffffffffffffffffffff1673ffffffffffffffffffffffffffffffffffffffff167f8be0079c531659141344cd1fd0a4f28419497f9722a3daafe3b4186f6b6457e060405160405180910390a360008060006101000a81548173ffffffffffffffffffffffffffffffffffffffff021916908373ffffffffffffffffffffffffffffffffffffffff160217905550565b60008060009054906101000a900473ffffffffffffffffffffffffffffffffffffffff16905090565b60008060009054906101000a900473ffffffffffffffffffffffffffffffffffffffff1673ffffffffffffffffffffffffffffffffffffffff163373ffffffffffffffffffffffffffffffffffffffff1614905090565b6000809054906101000a900473ffffffffffffffffffffffffffffffffffffffff1681565b600061062561059f565b151561063057600080fd5b6001600281111561063d57fe5b600060149054906101000a900460ff16600281111561065857fe5b1415156106cd576040517f08c379a000000000000000000000000000000000000000000000000000000000815260040180806020018281038252601a8152602001807f4572726f723a20636f6e7472616374206e6f742070617573656400000000000081525060200191505060405180910390fd5b60008060146101000a81548160ff021916908360028111156106eb57fe5b02179055503373ffffffffffffffffffffffffffffffffffffffff167f1f98e15848335d04a3b0c6ed4988542831246d3ae2250d2ad35485b34e6945b060405160405180910390a26001905090565b61074261059f565b151561074d57600080fd5b61075681610759565b50565b600073ffffffffffffffffffffffffffffffffffffffff168173ffffffffffffffffffffffffffffffffffffffff161415151561079557600080fd5b8073ffffffffffffffffffffffffffffffffffffffff166000809054906101000a900473ffffffffffffffffffffffffffffffffffffffff1673ffffffffffffffffffffffffffffffffffffffff167f8be0079c531659141344cd1fd0a4f28419497f9722a3daafe3b4186f6b6457e060405160405180910390a3806000806101000a81548173ffffffffffffffffffffffffffffffffffffffff021916908373ffffffffffffffffffffffffffffffffffffffff1602179055505056fea165627a7a72305820f72892eab7848060eec035471360d500ccd31b2a415d5a81c87ae3d1cbdc869f0029",
  "source": "pragma solidity >=0.4.22 <0.6.0;\n\nimport \"./Ownable.sol\";\n\ncontract States is Ownable {\n    \n    enum State {Active, Paused, Killed}\n    State private state;\n\n    event LogPausedContract(address indexed caller);\n    event LogResumeContract(address indexed caller);\n    event LogKilledContract(address indexed caller);\n    \n\n    modifier onlyIfActive {\n        require(state == State.Active, \"Error: contract paused or killed\");\n        _;\n    }\n\n    modifier onlyIfPaused {\n        require(state == State.Paused, \"Error: contract not paused\");\n        _;\n    }\n\n    constructor(uint initState) public {\n        require (State(initState) != State.Killed);\n        state = State(initState);\n    }\n\n    function pauseContract() public onlyIfActive onlyOwner returns(bool) {\n        state = State.Paused;\n\n        emit LogPausedContract(msg.sender);\n        return true;\n    }\n\n    function resumeContract() public onlyOwner onlyIfPaused returns(bool) {\n        state = State.Active;\n\n        emit LogResumeContract(msg.sender);\n        return true;\n    }\n\n    function killContract() public onlyOwner onlyIfPaused returns (bool) {\n        state = State.Killed;\n\n        emit LogKilledContract(msg.sender);\n        return true;\n    }\n\n}\n",
  "sourcePath": "/Users/miguelsoares/Projects/Training/Blockchain/b9Labs/Splitter/contracts/States.sol",
  "compiler": {
    "name": "solc",
    "version": "0.5.0+commit.1d4f565a.Emscripten.clang"
  },
  "schemaVersion": "3.0.2",
  "updatedAt": "2019-03-13T16:00:12.023Z",
  "devdoc": {
    "methods": {}
  },
  "userdoc": {
    "methods": {}
  }
}