{
  "contractName": "States",
  "abi": [
    {
      "constant": false,
      "inputs": [],
      "name": "renounceOwnership",
      "outputs": [],
      "payable": false,
      "stateMutability": "nonpayable",
      "type": "function"
    },
    {
      "constant": true,
      "inputs": [],
      "name": "getOwner",
      "outputs": [
        {
          "name": "",
          "type": "address"
        }
      ],
      "payable": false,
      "stateMutability": "view",
      "type": "function"
    },
    {
      "constant": true,
      "inputs": [],
      "name": "isOwner",
      "outputs": [
        {
          "name": "",
          "type": "bool"
        }
      ],
      "payable": false,
      "stateMutability": "view",
      "type": "function"
    },
    {
      "constant": false,
      "inputs": [
        {
          "name": "newOwner",
          "type": "address"
        }
      ],
      "name": "transferOwnership",
      "outputs": [],
      "payable": false,
      "stateMutability": "nonpayable",
      "type": "function"
    },
    {
      "inputs": [
        {
          "name": "initState",
          "type": "uint8"
        }
      ],
      "payable": false,
      "stateMutability": "nonpayable",
      "type": "constructor"
    },
    {
      "anonymous": false,
      "inputs": [
        {
          "indexed": true,
          "name": "caller",
          "type": "address"
        }
      ],
      "name": "LogPausedContract",
      "type": "event"
    },
    {
      "anonymous": false,
      "inputs": [
        {
          "indexed": true,
          "name": "caller",
          "type": "address"
        }
      ],
      "name": "LogResumeContract",
      "type": "event"
    },
    {
      "anonymous": false,
      "inputs": [
        {
          "indexed": true,
          "name": "caller",
          "type": "address"
        }
      ],
      "name": "LogKilledContract",
      "type": "event"
    },
    {
      "anonymous": false,
      "inputs": [
        {
          "indexed": true,
          "name": "previousOwner",
          "type": "address"
        },
        {
          "indexed": true,
          "name": "newOwner",
          "type": "address"
        }
      ],
      "name": "OwnershipTransferred",
      "type": "event"
    },
    {
      "constant": true,
      "inputs": [],
      "name": "getState",
      "outputs": [
        {
          "name": "",
          "type": "uint256"
        }
      ],
      "payable": false,
      "stateMutability": "view",
      "type": "function"
    },
    {
      "constant": false,
      "inputs": [],
      "name": "pauseContract",
      "outputs": [
        {
          "name": "",
          "type": "bool"
        }
      ],
      "payable": false,
      "stateMutability": "nonpayable",
      "type": "function"
    },
    {
      "constant": false,
      "inputs": [],
      "name": "resumeContract",
      "outputs": [
        {
          "name": "",
          "type": "bool"
        }
      ],
      "payable": false,
      "stateMutability": "nonpayable",
      "type": "function"
    },
    {
      "constant": false,
      "inputs": [],
      "name": "killContract",
      "outputs": [
        {
          "name": "",
          "type": "bool"
        }
      ],
      "payable": false,
      "stateMutability": "nonpayable",
      "type": "function"
    }
  ],
  "bytecode": "0x608060405234801561001057600080fd5b506040516020806109a48339810180604052602081101561003057600080fd5b8101908080519060200190929190505050336000806101000a81548173ffffffffffffffffffffffffffffffffffffffff021916908373ffffffffffffffffffffffffffffffffffffffff1602179055506000809054906101000a900473ffffffffffffffffffffffffffffffffffffffff1673ffffffffffffffffffffffffffffffffffffffff16600073ffffffffffffffffffffffffffffffffffffffff167f8be0079c531659141344cd1fd0a4f28419497f9722a3daafe3b4186f6b6457e060405160405180910390a360028081111561010957fe5b81600281111561011557fe5b1415151561012257600080fd5b80600060146101000a81548160ff0219169083600281111561014057fe5b02179055505061084f806101556000396000f3fe60806040526004361061008e576000357c0100000000000000000000000000000000000000000000000000000000900463ffffffff1680631865c57d146100935780631c02708d146100be578063439766ce146100ed578063715018a61461011c578063893d20e8146101335780638f32d59b1461018a578063c4bc5da5146101b9578063f2fde38b146101e8575b600080fd5b34801561009f57600080fd5b506100a8610239565b6040518082815260200191505060405180910390f35b3480156100ca57600080fd5b506100d361025a565b604051808215151515815260200191505060405180910390f35b3480156100f957600080fd5b5061010261037a565b604051808215151515815260200191505060405180910390f35b34801561012857600080fd5b50610131610499565b005b34801561013f57600080fd5b5061014861056b565b604051808273ffffffffffffffffffffffffffffffffffffffff1673ffffffffffffffffffffffffffffffffffffffff16815260200191505060405180910390f35b34801561019657600080fd5b5061019f610594565b604051808215151515815260200191505060405180910390f35b3480156101c557600080fd5b506101ce6105eb565b604051808215151515815260200191505060405180910390f35b3480156101f457600080fd5b506102376004803603602081101561020b57600080fd5b81019080803573ffffffffffffffffffffffffffffffffffffffff16906020019092919050505061070a565b005b60008060149054906101000a900460ff16600281111561025557fe5b905090565b6000610264610594565b151561026f57600080fd5b6001600281111561027c57fe5b600060149054906101000a900460ff16600281111561029757fe5b14151561030c576040517f08c379a000000000000000000000000000000000000000000000000000000000815260040180806020018281038252601a8152602001807f4572726f723a20636f6e7472616374206e6f742070617573656400000000000081525060200191505060405180910390fd5b6002600060146101000a81548160ff0219169083600281111561032b57fe5b02179055503373ffffffffffffffffffffffffffffffffffffffff167f2e509d9c7e2b2882b34a980d42eb39a18aff611ca02afffa9daa7861d97efa5760405160405180910390a26001905090565b600080600281111561038857fe5b600060149054906101000a900460ff1660028111156103a357fe5b141515610418576040517f08c379a00000000000000000000000000000000000000000000000000000000081526004018080602001828103825260208152602001807f4572726f723a20636f6e747261637420706175736564206f72206b696c6c656481525060200191505060405180910390fd5b610420610594565b151561042b57600080fd5b6001600060146101000a81548160ff0219169083600281111561044a57fe5b02179055503373ffffffffffffffffffffffffffffffffffffffff167f0f16e24f375b1dbe1f5a889ed7cfe74cc12486509f3d710d14078f001874362260405160405180910390a26001905090565b6104a1610594565b15156104ac57600080fd5b600073ffffffffffffffffffffffffffffffffffffffff166000809054906101000a900473ffffffffffffffffffffffffffffffffffffffff1673ffffffffffffffffffffffffffffffffffffffff167f8be0079c531659141344cd1fd0a4f28419497f9722a3daafe3b4186f6b6457e060405160405180910390a360008060006101000a81548173ffffffffffffffffffffffffffffffffffffffff021916908373ffffffffffffffffffffffffffffffffffffffff160217905550565b60008060009054906101000a900473ffffffffffffffffffffffffffffffffffffffff16905090565b60008060009054906101000a900473ffffffffffffffffffffffffffffffffffffffff1673ffffffffffffffffffffffffffffffffffffffff163373ffffffffffffffffffffffffffffffffffffffff1614905090565b60006105f5610594565b151561060057600080fd5b6001600281111561060d57fe5b600060149054906101000a900460ff16600281111561062857fe5b14151561069d576040517f08c379a000000000000000000000000000000000000000000000000000000000815260040180806020018281038252601a8152602001807f4572726f723a20636f6e7472616374206e6f742070617573656400000000000081525060200191505060405180910390fd5b60008060146101000a81548160ff021916908360028111156106bb57fe5b02179055503373ffffffffffffffffffffffffffffffffffffffff167f1f98e15848335d04a3b0c6ed4988542831246d3ae2250d2ad35485b34e6945b060405160405180910390a26001905090565b610712610594565b151561071d57600080fd5b61072681610729565b50565b600073ffffffffffffffffffffffffffffffffffffffff168173ffffffffffffffffffffffffffffffffffffffff161415151561076557600080fd5b8073ffffffffffffffffffffffffffffffffffffffff166000809054906101000a900473ffffffffffffffffffffffffffffffffffffffff1673ffffffffffffffffffffffffffffffffffffffff167f8be0079c531659141344cd1fd0a4f28419497f9722a3daafe3b4186f6b6457e060405160405180910390a3806000806101000a81548173ffffffffffffffffffffffffffffffffffffffff021916908373ffffffffffffffffffffffffffffffffffffffff1602179055505056fea165627a7a72305820f96f594c1f40c799395cfb47bbf2c06b592584f3b063cdd6dc46ff44e60efa010029",
  "source": "pragma solidity >=0.4.22 <0.6.0;\n\nimport \"./Ownable.sol\";\n\ncontract States is Ownable {\n    \n    enum State {Active, Paused, Killed}\n    State private state;\n\n    event LogPausedContract(address indexed caller);\n    event LogResumeContract(address indexed caller);\n    event LogKilledContract(address indexed caller);\n    \n\n    modifier onlyIfActive {\n        require(state == State.Active, \"Error: contract paused or killed\");\n        _;\n    }\n\n    modifier onlyIfPaused {\n        require(state == State.Paused, \"Error: contract not paused\");\n        _;\n    }\n\n    constructor(State initState) public {\n        require (State(initState) != State.Killed);\n        state = State(initState);\n    }\n\n    function getState() public view returns (uint) {\n        return uint(state);\n    }\n    \n\n    function pauseContract() public onlyIfActive onlyOwner returns(bool) {\n        state = State.Paused;\n\n        emit LogPausedContract(msg.sender);\n        return true;\n    }\n\n    function resumeContract() public onlyOwner onlyIfPaused returns(bool) {\n        state = State.Active;\n\n        emit LogResumeContract(msg.sender);\n        return true;\n    }\n\n    function killContract() public onlyOwner onlyIfPaused returns (bool) {\n        state = State.Killed;\n\n        emit LogKilledContract(msg.sender);\n        return true;\n    }\n\n}\n",
  "sourcePath": "/Users/miguelsoares/Projects/Training/Blockchain/b9Labs/Splitter/contracts/States.sol",
  "compiler": {
    "name": "solc",
    "version": "0.5.0+commit.1d4f565a.Emscripten.clang"
  },
  "schemaVersion": "3.0.2",
  "updatedAt": "2019-03-15T15:42:27.007Z",
  "devdoc": {
    "methods": {}
  },
  "userdoc": {
    "methods": {}
  }
}